{"abi":[{"type":"constructor","inputs":[{"name":"name","type":"string","internalType":"string"},{"name":"symbol","type":"string","internalType":"string"},{"name":"baseURI","type":"string","internalType":"string"},{"name":"_maxSupply","type":"uint256","internalType":"uint256"},{"name":"initialOwner","type":"address","internalType":"address"},{"name":"priceFeedAddress","type":"address","internalType":"address"}],"stateMutability":"nonpayable"},{"type":"function","name":"CLOCK_MODE","inputs":[],"outputs":[{"name":"","type":"string","internalType":"string"}],"stateMutability":"view"},{"type":"function","name":"MAX_PRICE_STALENESS","inputs":[],"outputs":[{"name":"","type":"uint256","internalType":"uint256"}],"stateMutability":"view"},{"type":"function","name":"airdrop","inputs":[{"name":"recipients","type":"address[]","internalType":"address[]"}],"outputs":[{"name":"","type":"uint256[]","internalType":"uint256[]"}],"stateMutability":"nonpayable"},{"type":"function","name":"approve","inputs":[{"name":"to","type":"address","internalType":"address"},{"name":"tokenId","type":"uint256","internalType":"uint256"}],"outputs":[],"stateMutability":"nonpayable"},{"type":"function","name":"balanceOf","inputs":[{"name":"owner","type":"address","internalType":"address"}],"outputs":[{"name":"","type":"uint256","internalType":"uint256"}],"stateMutability":"view"},{"type":"function","name":"burn","inputs":[{"name":"tokenId","type":"uint256","internalType":"uint256"}],"outputs":[],"stateMutability":"nonpayable"},{"type":"function","name":"clock","inputs":[],"outputs":[{"name":"","type":"uint48","internalType":"uint48"}],"stateMutability":"view"},{"type":"function","name":"delegate","inputs":[{"name":"delegatee","type":"address","internalType":"address"}],"outputs":[],"stateMutability":"nonpayable"},{"type":"function","name":"delegateBySig","inputs":[{"name":"delegatee","type":"address","internalType":"address"},{"name":"nonce","type":"uint256","internalType":"uint256"},{"name":"expiry","type":"uint256","internalType":"uint256"},{"name":"v","type":"uint8","internalType":"uint8"},{"name":"r","type":"bytes32","internalType":"bytes32"},{"name":"s","type":"bytes32","internalType":"bytes32"}],"outputs":[],"stateMutability":"nonpayable"},{"type":"function","name":"delegates","inputs":[{"name":"account","type":"address","internalType":"address"}],"outputs":[{"name":"","type":"address","internalType":"address"}],"stateMutability":"view"},{"type":"function","name":"eip712Domain","inputs":[],"outputs":[{"name":"fields","type":"bytes1","internalType":"bytes1"},{"name":"name","type":"string","internalType":"string"},{"name":"version","type":"string","internalType":"string"},{"name":"chainId","type":"uint256","internalType":"uint256"},{"name":"verifyingContract","type":"address","internalType":"address"},{"name":"salt","type":"bytes32","internalType":"bytes32"},{"name":"extensions","type":"uint256[]","internalType":"uint256[]"}],"stateMutability":"view"},{"type":"function","name":"getApproved","inputs":[{"name":"tokenId","type":"uint256","internalType":"uint256"}],"outputs":[{"name":"","type":"address","internalType":"address"}],"stateMutability":"view"},{"type":"function","name":"getMintPrice","inputs":[],"outputs":[{"name":"","type":"uint256","internalType":"uint256"}],"stateMutability":"view"},{"type":"function","name":"getPastTotalSupply","inputs":[{"name":"timepoint","type":"uint256","internalType":"uint256"}],"outputs":[{"name":"","type":"uint256","internalType":"uint256"}],"stateMutability":"view"},{"type":"function","name":"getPastVotes","inputs":[{"name":"account","type":"address","internalType":"address"},{"name":"timepoint","type":"uint256","internalType":"uint256"}],"outputs":[{"name":"","type":"uint256","internalType":"uint256"}],"stateMutability":"view"},{"type":"function","name":"getVotes","inputs":[{"name":"account","type":"address","internalType":"address"}],"outputs":[{"name":"","type":"uint256","internalType":"uint256"}],"stateMutability":"view"},{"type":"function","name":"isApprovedForAll","inputs":[{"name":"owner","type":"address","internalType":"address"},{"name":"operator","type":"address","internalType":"address"}],"outputs":[{"name":"","type":"bool","internalType":"bool"}],"stateMutability":"view"},{"type":"function","name":"maxSupply","inputs":[],"outputs":[{"name":"","type":"uint256","internalType":"uint256"}],"stateMutability":"view"},{"type":"function","name":"mint","inputs":[],"outputs":[{"name":"","type":"uint256","internalType":"uint256"}],"stateMutability":"payable"},{"type":"function","name":"mintPriceUSD","inputs":[],"outputs":[{"name":"","type":"uint256","internalType":"uint256"}],"stateMutability":"view"},{"type":"function","name":"name","inputs":[],"outputs":[{"name":"","type":"string","internalType":"string"}],"stateMutability":"view"},{"type":"function","name":"nonces","inputs":[{"name":"owner","type":"address","internalType":"address"}],"outputs":[{"name":"","type":"uint256","internalType":"uint256"}],"stateMutability":"view"},{"type":"function","name":"owner","inputs":[],"outputs":[{"name":"","type":"address","internalType":"address"}],"stateMutability":"view"},{"type":"function","name":"ownerOf","inputs":[{"name":"tokenId","type":"uint256","internalType":"uint256"}],"outputs":[{"name":"","type":"address","internalType":"address"}],"stateMutability":"view"},{"type":"function","name":"pause","inputs":[],"outputs":[],"stateMutability":"nonpayable"},{"type":"function","name":"paused","inputs":[],"outputs":[{"name":"","type":"bool","internalType":"bool"}],"stateMutability":"view"},{"type":"function","name":"priceFeed","inputs":[],"outputs":[{"name":"","type":"address","internalType":"contract AggregatorV3Interface"}],"stateMutability":"view"},{"type":"function","name":"renounceOwnership","inputs":[],"outputs":[],"stateMutability":"nonpayable"},{"type":"function","name":"safeTransferFrom","inputs":[{"name":"from","type":"address","internalType":"address"},{"name":"to","type":"address","internalType":"address"},{"name":"tokenId","type":"uint256","internalType":"uint256"}],"outputs":[],"stateMutability":"nonpayable"},{"type":"function","name":"safeTransferFrom","inputs":[{"name":"from","type":"address","internalType":"address"},{"name":"to","type":"address","internalType":"address"},{"name":"tokenId","type":"uint256","internalType":"uint256"},{"name":"data","type":"bytes","internalType":"bytes"}],"outputs":[],"stateMutability":"nonpayable"},{"type":"function","name":"setApprovalForAll","inputs":[{"name":"operator","type":"address","internalType":"address"},{"name":"approved","type":"bool","internalType":"bool"}],"outputs":[],"stateMutability":"nonpayable"},{"type":"function","name":"setBaseURI","inputs":[{"name":"newBaseURI","type":"string","internalType":"string"}],"outputs":[],"stateMutability":"nonpayable"},{"type":"function","name":"setMintPriceUSD","inputs":[{"name":"newPriceUSD","type":"uint256","internalType":"uint256"}],"outputs":[],"stateMutability":"nonpayable"},{"type":"function","name":"supportsInterface","inputs":[{"name":"interfaceId","type":"bytes4","internalType":"bytes4"}],"outputs":[{"name":"","type":"bool","internalType":"bool"}],"stateMutability":"view"},{"type":"function","name":"symbol","inputs":[],"outputs":[{"name":"","type":"string","internalType":"string"}],"stateMutability":"view"},{"type":"function","name":"tokenByIndex","inputs":[{"name":"index","type":"uint256","internalType":"uint256"}],"outputs":[{"name":"","type":"uint256","internalType":"uint256"}],"stateMutability":"view"},{"type":"function","name":"tokenOfOwnerByIndex","inputs":[{"name":"owner","type":"address","internalType":"address"},{"name":"index","type":"uint256","internalType":"uint256"}],"outputs":[{"name":"","type":"uint256","internalType":"uint256"}],"stateMutability":"view"},{"type":"function","name":"tokenURI","inputs":[{"name":"tokenId","type":"uint256","internalType":"uint256"}],"outputs":[{"name":"","type":"string","internalType":"string"}],"stateMutability":"view"},{"type":"function","name":"totalSupply","inputs":[],"outputs":[{"name":"","type":"uint256","internalType":"uint256"}],"stateMutability":"view"},{"type":"function","name":"transferFrom","inputs":[{"name":"from","type":"address","internalType":"address"},{"name":"to","type":"address","internalType":"address"},{"name":"tokenId","type":"uint256","internalType":"uint256"}],"outputs":[],"stateMutability":"nonpayable"},{"type":"function","name":"transferOwnership","inputs":[{"name":"newOwner","type":"address","internalType":"address"}],"outputs":[],"stateMutability":"nonpayable"},{"type":"function","name":"unpause","inputs":[],"outputs":[],"stateMutability":"nonpayable"},{"type":"function","name":"withdraw","inputs":[{"name":"recipient","type":"address","internalType":"address payable"}],"outputs":[],"stateMutability":"nonpayable"},{"type":"event","name":"Approval","inputs":[{"name":"owner","type":"address","indexed":true,"internalType":"address"},{"name":"approved","type":"address","indexed":true,"internalType":"address"},{"name":"tokenId","type":"uint256","indexed":true,"internalType":"uint256"}],"anonymous":false},{"type":"event","name":"ApprovalForAll","inputs":[{"name":"owner","type":"address","indexed":true,"internalType":"address"},{"name":"operator","type":"address","indexed":true,"internalType":"address"},{"name":"approved","type":"bool","indexed":false,"internalType":"bool"}],"anonymous":false},{"type":"event","name":"BatchMetadataUpdate","inputs":[{"name":"_fromTokenId","type":"uint256","indexed":false,"internalType":"uint256"},{"name":"_toTokenId","type":"uint256","indexed":false,"internalType":"uint256"}],"anonymous":false},{"type":"event","name":"DelegateChanged","inputs":[{"name":"delegator","type":"address","indexed":true,"internalType":"address"},{"name":"fromDelegate","type":"address","indexed":true,"internalType":"address"},{"name":"toDelegate","type":"address","indexed":true,"internalType":"address"}],"anonymous":false},{"type":"event","name":"DelegateVotesChanged","inputs":[{"name":"delegate","type":"address","indexed":true,"internalType":"address"},{"name":"previousVotes","type":"uint256","indexed":false,"internalType":"uint256"},{"name":"newVotes","type":"uint256","indexed":false,"internalType":"uint256"}],"anonymous":false},{"type":"event","name":"EIP712DomainChanged","inputs":[],"anonymous":false},{"type":"event","name":"MetadataUpdate","inputs":[{"name":"_tokenId","type":"uint256","indexed":false,"internalType":"uint256"}],"anonymous":false},{"type":"event","name":"MintPriceUpdated","inputs":[{"name":"oldPrice","type":"uint256","indexed":false,"internalType":"uint256"},{"name":"newPrice","type":"uint256","indexed":false,"internalType":"uint256"}],"anonymous":false},{"type":"event","name":"Minted","inputs":[{"name":"to","type":"address","indexed":true,"internalType":"address"},{"name":"tokenId","type":"uint256","indexed":true,"internalType":"uint256"}],"anonymous":false},{"type":"event","name":"OwnershipTransferred","inputs":[{"name":"previousOwner","type":"address","indexed":true,"internalType":"address"},{"name":"newOwner","type":"address","indexed":true,"internalType":"address"}],"anonymous":false},{"type":"event","name":"Paused","inputs":[{"name":"account","type":"address","indexed":false,"internalType":"address"}],"anonymous":false},{"type":"event","name":"Transfer","inputs":[{"name":"from","type":"address","indexed":true,"internalType":"address"},{"name":"to","type":"address","indexed":true,"internalType":"address"},{"name":"tokenId","type":"uint256","indexed":true,"internalType":"uint256"}],"anonymous":false},{"type":"event","name":"Unpaused","inputs":[{"name":"account","type":"address","indexed":false,"internalType":"address"}],"anonymous":false},{"type":"error","name":"CheckpointUnorderedInsertion","inputs":[]},{"type":"error","name":"ECDSAInvalidSignature","inputs":[]},{"type":"error","name":"ECDSAInvalidSignatureLength","inputs":[{"name":"length","type":"uint256","internalType":"uint256"}]},{"type":"error","name":"ECDSAInvalidSignatureS","inputs":[{"name":"s","type":"bytes32","internalType":"bytes32"}]},{"type":"error","name":"ERC5805FutureLookup","inputs":[{"name":"timepoint","type":"uint256","internalType":"uint256"},{"name":"clock","type":"uint48","internalType":"uint48"}]},{"type":"error","name":"ERC6372InconsistentClock","inputs":[]},{"type":"error","name":"ERC721EnumerableForbiddenBatchMint","inputs":[]},{"type":"error","name":"ERC721IncorrectOwner","inputs":[{"name":"sender","type":"address","internalType":"address"},{"name":"tokenId","type":"uint256","internalType":"uint256"},{"name":"owner","type":"address","internalType":"address"}]},{"type":"error","name":"ERC721InsufficientApproval","inputs":[{"name":"operator","type":"address","internalType":"address"},{"name":"tokenId","type":"uint256","internalType":"uint256"}]},{"type":"error","name":"ERC721InvalidApprover","inputs":[{"name":"approver","type":"address","internalType":"address"}]},{"type":"error","name":"ERC721InvalidOperator","inputs":[{"name":"operator","type":"address","internalType":"address"}]},{"type":"error","name":"ERC721InvalidOwner","inputs":[{"name":"owner","type":"address","internalType":"address"}]},{"type":"error","name":"ERC721InvalidReceiver","inputs":[{"name":"receiver","type":"address","internalType":"address"}]},{"type":"error","name":"ERC721InvalidSender","inputs":[{"name":"sender","type":"address","internalType":"address"}]},{"type":"error","name":"ERC721NonexistentToken","inputs":[{"name":"tokenId","type":"uint256","internalType":"uint256"}]},{"type":"error","name":"ERC721OutOfBoundsIndex","inputs":[{"name":"owner","type":"address","internalType":"address"},{"name":"index","type":"uint256","internalType":"uint256"}]},{"type":"error","name":"EnforcedPause","inputs":[]},{"type":"error","name":"ExpectedPause","inputs":[]},{"type":"error","name":"InvalidAccountNonce","inputs":[{"name":"account","type":"address","internalType":"address"},{"name":"currentNonce","type":"uint256","internalType":"uint256"}]},{"type":"error","name":"InvalidMintValue","inputs":[{"name":"sent","type":"uint256","internalType":"uint256"},{"name":"required","type":"uint256","internalType":"uint256"}]},{"type":"error","name":"InvalidPriceFeed","inputs":[]},{"type":"error","name":"InvalidShortString","inputs":[]},{"type":"error","name":"MaxSupplyReached","inputs":[]},{"type":"error","name":"OwnableInvalidOwner","inputs":[{"name":"owner","type":"address","internalType":"address"}]},{"type":"error","name":"OwnableUnauthorizedAccount","inputs":[{"name":"account","type":"address","internalType":"address"}]},{"type":"error","name":"ReentrancyGuardReentrantCall","inputs":[]},{"type":"error","name":"SafeCastOverflowedUintDowncast","inputs":[{"name":"bits","type":"uint8","internalType":"uint8"},{"name":"value","type":"uint256","internalType":"uint256"}]},{"type":"error","name":"StringTooLong","inputs":[{"name":"str","type":"string","internalType":"string"}]},{"type":"error","name":"VotesExpiredSignature","inputs":[{"name":"expiry","type":"uint256","internalType":"uint256"}]}],"bytecode":{"object":"0x6101a0806040523461066657613c22803803809161001d828561066a565b8339810160c0828203126106665781516001600160401b038111610666578161004791840161068d565b60208301519091906001600160401b038111610666578161006991850161068d565b604084015190916001600160401b0382116106665761008991850161068d565b926060810151906100a860a06100a1608084016106e2565b92016106e2565b926040948551926100b9878561066a565b60018452603160f81b6020850190815282519093906001600160401b03811161047e575f54600181811c9116801561065c575b602082101461046057601f81116105fa575b50806020601f8211600114610599575f9161058e575b508160011b915f199060031b1c1916175f555b8051906001600160401b03821161047e5760015490600182811c92168015610584575b60208310146104605781601f849311610516575b50602090601f83116001146104b0575f926104a5575b50508160011b915f199060031b1c1916176001555b6001600160a01b03811690811561049257600b8054610100600160a81b03198116600893841b610100600160a81b031617909155901c6001600160a01b03167f8be0079c531659141344cd1fd0a4f28419497f9722a3daafe3b4186f6b6457e05f80a36101f5816106f6565b610120526102028361087d565b6101405260208151910120918260e05251902080610100524660a05284519060208201927f8b73c3c69bb8fe3d512ecc4cf759cc79239f7b179b0ffacaa9a75d522b39400f84528683015260608201524660808201523060a082015260a0815261026d60c08261066a565b5190206080523060c05260017f9b779b17422d0df92223018b32b4d1fa46e071723d6817e2486d003becc55f008190556012556101605282516001600160401b03811161047e57601354600181811c91168015610474575b602082101461046057601f81116103fd575b506020601f821160011461039a57819293945f9261038f575b50508160011b915f199060031b1c1916176013555b6001600160a01b03166101805260646014555161326c90816109b6823960805181612a4b015260a05181612b08015260c05181612a15015260e05181612a9a01526101005181612ac0015261012051816111320152610140518161115e01526101605181818161065d015281816116740152611be50152610180518181816110570152611d9d0152f35b015190505f806102f0565b601f1982169060135f52805f20915f5b8181106103e5575095836001959697106103cd575b505050811b01601355610305565b01515f1960f88460031b161c191690555f80806103bf565b9192602060018192868b0151815501940192016103aa565b60135f527f66de8ffda797e3de9c05e8fc57b3bf0ec28a930d40b0d285d93c06501cf6a090601f830160051c81019160208410610456575b601f0160051c01905b81811061044b57506102d7565b5f815560010161043e565b9091508190610435565b634e487b7160e01b5f52602260045260245ffd5b90607f16906102c5565b634e487b7160e01b5f52604160045260245ffd5b631e4fbdf760e01b5f525f60045260245ffd5b015190505f80610174565b60015f9081528281209350601f198516905b8181106104fe57509084600195949392106104e6575b505050811b01600155610189565b01515f1960f88460031b161c191690555f80806104d8565b929360206001819287860151815501950193016104c2565b60015f529091507fb10e2d527612073b26eecdfd717e6a320cf44b4afac2b0732d9fcbe2b7fa0cf6601f840160051c8101916020851061057a575b90601f859493920160051c01905b81811061056c575061015e565b5f815584935060010161055f565b9091508190610551565b91607f169161014a565b90508401515f610114565b5f8080528181209250601f198416905b8181106105e2575090836001949392106105ca575b5050811b015f55610127565b8601515f1960f88460031b161c191690555f806105be565b9192602060018192868b0151815501940192016105a9565b5f80527f290decd9548b62a8d60345a988386fc84ba6bc95484008f6362f93160ef3e563601f830160051c81019160208410610652575b601f0160051c01905b81811061064757506100fe565b5f815560010161063a565b9091508190610631565b90607f16906100ec565b5f80fd5b601f909101601f19168101906001600160401b0382119082101761047e57604052565b81601f82011215610666578051906001600160401b03821161047e57604051926106c1601f8401601f19166020018561066a565b8284526020838301011161066657815f9260208093018386015e8301015290565b51906001600160a01b038216820361066657565b908151602081105f14610770575090601f815111610730576020815191015160208210610721571790565b5f198260200360031b1b161790565b604460209160405192839163305a27a960e01b83528160048401528051918291826024860152018484015e5f828201840152601f01601f19168101030190fd5b6001600160401b03811161047e57600c54600181811c91168015610873575b602082101461046057601f8111610840575b50602092601f82116001146107df57928192935f926107d4575b50508160011b915f199060031b1c191617600c5560ff90565b015190505f806107bb565b601f19821693600c5f52805f20915f5b8681106108285750836001959610610810575b505050811b01600c5560ff90565b01515f1960f88460031b161c191690555f8080610802565b919260206001819286850151815501940192016107ef565b600c5f52601f60205f20910160051c810190601f830160051c015b81811061086857506107a1565b5f815560010161085b565b90607f169061078f565b908151602081105f146108a8575090601f815111610730576020815191015160208210610721571790565b6001600160401b03811161047e57600d54600181811c911680156109ab575b602082101461046057601f8111610978575b50602092601f821160011461091757928192935f9261090c575b50508160011b915f199060031b1c191617600d5560ff90565b015190505f806108f3565b601f19821693600d5f52805f20915f5b8681106109605750836001959610610948575b505050811b01600d5560ff90565b01515f1960f88460031b161c191690555f808061093a565b91926020600181928685015181550194019201610927565b600d5f52601f60205f20910160051c810190601f830160051c015b8181106109a057506108d9565b5f8155600101610993565b90607f16906108c756fe60806040526004361015610011575f80fd5b5f3560e01c806301ffc9a7146102c457806306fdde03146102bf578063081812fc146102ba578063095ea7b3146102b55780631249c58b146102b057806318160ddd146102ab5780631cbb4131146102a657806323b872dd146102a15780632f745c591461029c5780633a46b1a8146102975780633f4ba83a1461029257806342842e0e1461028d57806342966c68146102885780634bf5d7e9146102835780634f6ccce71461027e57806351cff8d91461027957806355f804b314610274578063587cde1e1461026f5780635c19a95c1461026a5780635c975abb146102655780636352211e1461026057806370a082311461025b578063715018a614610256578063729ad39e14610251578063741bef1a1461024c5780637ecebe00146102475780638456cb591461024257806384b0196e1461023d5780638da5cb5b146102385780638e539e8c1461023357806391ddadf41461022e57806395d89b41146102295780639ab24eb0146102245780639b41886c1461021f578063a22cb4651461021a578063a7f93ebd14610215578063b88d4fde14610210578063c3cda5201461020b578063c87b56dd14610206578063d5abeb0114610201578063d6913b32146101fc578063e985e9c5146101f75763f2fde38b146101f2575f80fd5b611717565b6116b3565b611697565b61165d565b61162a565b611542565b6114d4565b6114ba565b611403565b6113e6565b611395565b6112f0565b6112c5565b611206565b6111da565b61111a565b6110c1565b611086565b611042565b610fa1565b610ee6565b610eb7565b610e87565b610e65565b610e3f565b610dfc565b610cd4565b610b5f565b610af9565b610a69565b610a4c565b610a17565b6109b1565b6108c8565b61084e565b610837565b610767565b61074a565b6105e9565b6104de565b610491565b6103ba565b6102df565b6001600160e01b03198116036102db57565b5f80fd5b346102db5760203660031901126102db576004356102fc816102c9565b63ffffffff60e01b16632483248360e11b8114908115610325575b506040519015158152602090f35b63780e9d6360e01b81149150811561033f575b505f610317565b6380ac58cd60e01b811491508115610371575b8115610360575b505f610338565b6301ffc9a760e01b1490505f610359565b635b5e139f60e01b81149150610352565b805180835260209291819084018484015e5f828201840152601f01601f1916010190565b9060206103b7928181520190610382565b90565b346102db575f3660031901126102db576040515f5f546103d9816117b4565b808452906001811690811561046d5750600114610411575b61040d8361040181850382610c4a565b604051918291826103a6565b0390f35b5f8080527f290decd9548b62a8d60345a988386fc84ba6bc95484008f6362f93160ef3e563939250905b808210610453575090915081016020016104016103f1565b91926001816020925483858801015201910190929161043b565b60ff191660208086019190915291151560051b8401909101915061040190506103f1565b346102db5760203660031901126102db576004356104ae81611e6c565b505f526004602052602060018060a01b0360405f205416604051908152f35b6001600160a01b038116036102db57565b346102db5760403660031901126102db576004356104fb816104cd565b6024359061050882611e6c565b331515806105d6575b80610598575b61058557610583926105649181906001600160a01b0385811691167f8c5be1e5ebec7d5bd14f71427d1e84f3dd0314c0f7b2291e5b200ac8c7c3b9255f80a45f52600460205260405f2090565b80546001600160a01b0319166001600160a01b03909216919091179055565b005b63a9fbf51f60e01b5f523360045260245ffd5b5060ff6105ce336105b98460018060a01b03165f52600560205260405f2090565b9060018060a01b03165f5260205260405f2090565b541615610517565b506001600160a01b038116331415610511565b5f3660031901126102db576105fc611ea0565b60027f9b779b17422d0df92223018b32b4d1fa46e071723d6817e2486d003becc55f00541461073b5760027f9b779b17422d0df92223018b32b4d1fa46e071723d6817e2486d003becc55f0055610651611d88565b803403610725576008547f0000000000000000000000000000000000000000000000000000000000000000801515918261071a575b505061070b5761040d6012546106a361069e82611920565b601255565b6106ad8133611ebb565b60405191818392337f30385c845b448a36257a6a1716e6ad2e1bc2cbe333cde1e69fe849ad6511adfe5f80a361070260017f9b779b17422d0df92223018b32b4d1fa46e071723d6817e2486d003becc55f0055565b82526020820190565b63d05cb60960e01b5f5260045ffd5b101590508180610686565b6324dd090160e11b5f523460045260245260445ffd5b633ee5aeb560e01b5f5260045ffd5b346102db575f3660031901126102db576020600854604051908152f35b346102db5760203660031901126102db57600435610783611ff7565b80156107c65760148054908290556040805191825260208201929092527f2e1c9e000c6e8dda4d03536adb13b7cb6034ccff90d17f01de381e4d5097b5259190a1005b60405162461bcd60e51b815260206004820152601c60248201527f4163636573734e46543a207072696365206d757374206265203e2030000000006044820152606490fd5b60609060031901126102db57600435610823816104cd565b90602435610830816104cd565b9060443590565b346102db576105836108483661080b565b9161192e565b346102db5760403660031901126102db5760043561086b816104cd565b6024359061087881611b29565b8210156108ab576001600160a01b03165f9081526006602090815260408083209383529281529082902054915191825290f35b63295f44f760e21b5f5260018060a01b031660045260245260445ffd5b346102db5760403660031901126102db576004356108e5816104cd565b6001600160a01b03165f908152601060205260409020610906602435612021565b8154905f829160058411610959575b610920935084612813565b908161093e57505060205f5b6040516001600160d01b039091168152f35b610949602092611d14565b905f52815f20015460301c61092c565b9192610964816126b5565b81039081116109ac5761092093855f5265ffffffffffff8260205f2001541665ffffffffffff8516105f1461099a575091610915565b9291506109a690611b75565b90610915565b61190c565b346102db575f3660031901126102db576109c9611ff7565b600b5460ff811615610a085760ff1916600b557f5db9ee0a495bf2e6ff9c91a7834c1ba4fdd244a5e8aa4e537bd38aeae4b073aa6020604051338152a1005b638dfc202b60e01b5f5260045ffd5b346102db57610583610a283661080b565b9060405192610a38602085610c4a565b5f8452610a4683838361192e565b3361222e565b346102db5760203660031901126102db5761058333600435612582565b346102db575f3660031901126102db57610a8243612686565b65ffffffffffff80610a9343612686565b16911603610aea5761040d604051610aac604082610c4a565b601d81527f6d6f64653d626c6f636b6e756d6265722666726f6d3d64656661756c740000006020820152604051918291602083526020830190610382565b6301bfc1c560e61b5f5260045ffd5b346102db5760203660031901126102db57600435600854811015610b495760085f527ff3f7a9fe364faab93b216da50a3214154f22a0a2b415b23a84c8169e8b636ee30154604051908152602090f35b63295f44f760e21b5f525f60045260245260445ffd5b346102db5760203660031901126102db57600435610b7c816104cd565b610b84611ff7565b6001600160a01b03168015610bf1575f8080809347905af1610ba4611aaa565b5015610bac57005b60405162461bcd60e51b815260206004820152601c60248201527f4163636573734e46543a207769746864726177616c206661696c6564000000006044820152606490fd5b60405162461bcd60e51b815260206004820152601c60248201527f4163636573734e46543a20696e76616c696420726563697069656e74000000006044820152606490fd5b634e487b7160e01b5f52604160045260245ffd5b90601f8019910116810190811067ffffffffffffffff821117610c6c57604052565b610c36565b60405190610c80604083610c4a565b565b67ffffffffffffffff8111610c6c57601f01601f191660200190565b929192610caa82610c82565b91610cb86040519384610c4a565b8294818452818301116102db578281602093845f960137010152565b346102db5760203660031901126102db5760043567ffffffffffffffff81116102db57366023820112156102db57610d16903690602481600401359101610c9e565b610d1e611ff7565b805167ffffffffffffffff8111610c6c57610d4381610d3e6013546117b4565b611ad9565b602091601f8211600114610d8157610d71925f9183610d76575b50508160011b915f199060031b1c19161790565b601355005b015190505f80610d5d565b60135f52601f198216927f66de8ffda797e3de9c05e8fc57b3bf0ec28a930d40b0d285d93c06501cf6a090915f5b858110610de457508360019510610dcc575b505050811b01601355005b01515f1960f88460031b161c191690555f8080610dc1565b91926020600181928685015181550194019201610daf565b346102db5760203660031901126102db57600435610e19816104cd565b60018060a01b03165f52600f602052602060018060a01b0360405f205416604051908152f35b346102db5760203660031901126102db57610583600435610e5f816104cd565b3361205a565b346102db575f3660031901126102db57602060ff600b54166040519015158152f35b346102db5760203660031901126102db576020610ea5600435611e6c565b6040516001600160a01b039091168152f35b346102db5760203660031901126102db576020610ede600435610ed9816104cd565b611b29565b604051908152f35b346102db575f3660031901126102db57610efe611ff7565b600b8054610100600160a81b031981169091555f9060081c6001600160a01b03167f8be0079c531659141344cd1fd0a4f28419497f9722a3daafe3b4186f6b6457e08280a3005b67ffffffffffffffff8111610c6c5760051b60200190565b90602080835192838152019201905f5b818110610f7a5750505090565b8251845260209384019390920191600101610f6d565b9060206103b7928181520190610f5d565b346102db5760203660031901126102db5760043567ffffffffffffffff81116102db57366023820112156102db57806004013590610fde82610f45565b91610fec6040519384610c4a565b8083526024602084019160051b830101913683116102db57602401905b8282106110285761040d61101c85611ba9565b60405191829182610f90565b602080918335611037816104cd565b815201910190611009565b346102db575f3660031901126102db576040517f00000000000000000000000000000000000000000000000000000000000000006001600160a01b03168152602090f35b346102db5760203660031901126102db576004356110a3816104cd565b60018060a01b03165f52600e602052602060405f2054604051908152f35b346102db575f3660031901126102db576110d9611ff7565b6110e1611ea0565b600160ff19600b541617600b557f62e78cea01bee320cd4e420270b5ea74000d11b0c9f74754ebdbfc544b05a2586020604051338152a1005b346102db575f3660031901126102db576111ac6111567f0000000000000000000000000000000000000000000000000000000000000000612998565b61040d6111827f00000000000000000000000000000000000000000000000000000000000000006129e2565b6111ba61118d611b5a565b91604051958695600f60f81b875260e0602088015260e0870190610382565b908582036040870152610382565b904660608501523060808501525f60a085015283820360c0850152610f5d565b346102db575f3660031901126102db57600b5460405160089190911c6001600160a01b03168152602090f35b346102db5760203660031901126102db57611222600435612021565b601154905f829160058411611271575b61123e93506011612813565b8061124f57506040515f8152602090f35b61126c61125d602092611d14565b60115f52825f20015460301c90565b61092c565b919261127c816126b5565b81039081116109ac5761123e9360115f5265ffffffffffff8260205f2001541665ffffffffffff8516105f146112b3575091611232565b9291506112bf90611b75565b90611232565b346102db575f3660031901126102db5760206112e043612686565b65ffffffffffff60405191168152f35b346102db575f3660031901126102db576040515f600154611310816117b4565b808452906001811690811561046d57506001146113375761040d8361040181850382610c4a565b60015f9081527fb10e2d527612073b26eecdfd717e6a320cf44b4afac2b0732d9fcbe2b7fa0cf6939250905b80821061137b575090915081016020016104016103f1565b919260018160209254838588010152019101909291611363565b346102db5760203660031901126102db576004356113b2816104cd565b6001600160a01b03165f9081526010602090815260409091206001600160d01b03906113dd906120cd565b16604051908152f35b346102db575f3660031901126102db576020601454604051908152f35b346102db5760403660031901126102db57600435611420816104cd565b60243590811515908183036102db576001600160a01b0381169283156114a75761146861147992335f52600560205260405f209060018060a01b03165f5260205260405f2090565b9060ff801983541691151516179055565b6040519081527f17307eab39ab6107e8899845ad3d59bd9653f200f220920489ca2b5937696c3160203392a3005b83630b61174360e31b5f5260045260245ffd5b346102db575f3660031901126102db576020610ede611d88565b346102db5760803660031901126102db576004356114f1816104cd565b602435906114fe826104cd565b6044356064359267ffffffffffffffff84116102db57366023850112156102db57611536610583943690602481600401359101610c9e565b92610a4683838361192e565b346102db5760c03660031901126102db5760043561155f816104cd565b6044359060243560643560ff811681036102db5760843560a43591854211611617579161160b916116129360426105839860405160208101917fe48329057bfd03d55e49b547132e39cffd9c1820ad7b9d4c5307691425d15adf835260018060a01b038b1660408301528960608301526080820152608081526115e360a082610c4a565b5190206115ee612a12565b906040519161190160f01b835260028301526022820152206122c8565b91826122e0565b61205a565b85632341d78760e11b5f5260045260245ffd5b346102db5760203660031901126102db5761040d611649600435612362565b604051918291602083526020830190610382565b346102db575f3660031901126102db5760206040517f00000000000000000000000000000000000000000000000000000000000000008152f35b346102db575f3660031901126102db576020604051610e108152f35b346102db5760403660031901126102db57602060ff61170b6004356116d7816104cd565b602435906116e4826104cd565b60018060a01b03165f526005845260405f209060018060a01b03165f5260205260405f2090565b54166040519015158152f35b346102db5760203660031901126102db57600435611734816104cd565b61173c611ff7565b6001600160a01b0381169081156117a157600b8054610100600160a81b03198116600893841b610100600160a81b031617909155901c6001600160a01b03167f8be0079c531659141344cd1fd0a4f28419497f9722a3daafe3b4186f6b6457e05f80a3005b631e4fbdf760e01b5f525f60045260245ffd5b90600182811c921680156117e2575b60208310146117ce57565b634e487b7160e01b5f52602260045260245ffd5b91607f16916117c3565b6013545f92916117fb826117b4565b808252916001811690811561186f5750600114611816575050565b60135f9081529293509091907f66de8ffda797e3de9c05e8fc57b3bf0ec28a930d40b0d285d93c06501cf6a0905b838310611855575060209250010190565b600181602092949394548385870101520191019190611844565b9050602093945060ff929192191683830152151560051b010190565b5f929181549161189a836117b4565b80835292600181169081156118ef57506001146118b657505050565b5f9081526020812093945091925b8383106118d5575060209250010190565b6001816020929493945483858701015201910191906118c4565b915050602093945060ff929192191683830152151560051b010190565b634e487b7160e01b5f52601160045260245ffd5b5f1981146109ac5760010190565b6001600160a01b03821692918315611a8357611948611ea0565b5f838152600260205260409020546119f4906001600160a01b03169133611a73575b6001600160a01b0383169586158015611a47575b6001600160a01b0383165f908152600360205260409020600181540190556119b283610564895f52600260205260405f2090565b8682897fddf252ad1be2c89b69c2b068fc378daa952ba7f163c4a11628f55a4df523b3ef5f80a415611a31576119e786612eb2565b8603611a22575b82612c4a565b506001600160a01b0316808303611a0a57505050565b6364283d7b60e01b5f5260045260245260445260645ffd5b611a2c8582612f09565b6119ee565b8681146119e757611a428685612e2f565b6119e7565b611a5087612560565b6001600160a01b0385165f90815260036020526040902080545f1901905561197e565b611a7e85338561315e565b61196a565b633250574960e11b5f525f60045260245ffd5b634e487b7160e01b5f52603260045260245ffd5b3d15611ad4573d90611abb82610c82565b91611ac96040519384610c4a565b82523d5f602084013e565b606090565b601f8111611ae5575050565b60135f5260205f20906020601f840160051c83019310611b1f575b601f0160051c01905b818110611b14575050565b5f8155600101611b09565b9091508190611b00565b6001600160a01b03168015611b47575f52600360205260405f205490565b6322718ad960e21b5f525f60045260245ffd5b60405190611b69602083610c4a565b5f808352366020840137565b90600182018092116109ac57565b919082018092116109ac57565b8051821015611ba45760209160051b010190565b611a96565b611bb1611ff7565b8051611bbc81610f45565b91611bca6040519384610c4a565b818352601f19611bd983610f45565b013660208501376008547f0000000000000000000000000000000000000000000000000000000000000000838115159283611cac575b50505061070b575f5b828110611c255750505090565b600190601254611c3761069e82611920565b611c5a81611c55611c488588611b90565b516001600160a01b031690565b611ebb565b80611c658388611b90565b52611c82611c76611c488487611b90565b6001600160a01b031690565b7f30385c845b448a36257a6a1716e6ad2e1bc2cbe333cde1e69fe849ad6511adfe5f80a301611c18565b611cb7929350611b83565b115f8381611c0f565b519069ffffffffffffffffffff821682036102db57565b908160a09103126102db57611ceb81611cc0565b916020820151916040810151916103b7608060608401519301611cc0565b6040513d5f823e3d90fd5b5f198101919082116109ac57565b919082039182116109ac57565b906a52b7d2dcc80cd2e40000008202918083046a52b7d2dcc80cd2e400000014901517156109ac57565b90816064029160648304036109ac57565b8115611d74570490565b634e487b7160e01b5f52601260045260245ffd5b604051633fabe5a360e21b815260a0816004817f00000000000000000000000000000000000000000000000000000000000000006001600160a01b03165afa8015611e67575f915f91611e31575b508015908115611e1b575b50611e0c575f811315611e0c576103b790611e06611e00601454611d2f565b91611d59565b90611d6a565b6352cc3f7d60e01b5f5260045ffd5b610e109150611e2a9042611d22565b115f611de1565b9050611e55915060a03d60a011611e60575b611e4d8183610c4a565b810190611cd7565b50925050905f611dd6565b503d611e43565b611d09565b5f818152600260205260409020546001600160a01b0316908115611e8e575090565b637e27328960e01b5f5260045260245ffd5b60ff600b5416611eac57565b63d93c066560e01b5f5260045ffd5b9060405190611ecb602083610c4a565b5f82526001600160a01b0383168015611a8357611ee6611ea0565b5f828152600260205260409020546001600160a01b0316801580159290829084611fcb575b6001600160a01b0388165f90815260036020526040902060018154019055611f3f88610564885f52600260205260405f2090565b8583837fddf252ad1be2c89b69c2b068fc378daa952ba7f163c4a11628f55a4df523b3ef5f80a415611fb557611f7485612eb2565b03611fa6575b611f848582612c4a565b50611f9357610c80923361213d565b6339e3563760e11b5f525f60045260245ffd5b611fb08386612f09565b611f7a565b808214611f7457611fc68584612e2f565b611f74565b611fd486612560565b6001600160a01b0384165f90815260036020526040902080545f19019055611f0b565b600b5460081c6001600160a01b0316330361200e57565b63118cdaa760e01b5f523360045260245ffd5b65ffffffffffff61203143612686565b168082101561204457506103b790612686565b90637669fc0f60e11b5f5260045260245260445ffd5b6001600160a01b038181165f818152600f6020526040902080546001600160a01b0319811684871617909155610c80949216926120c7916001600160a01b0384169085907f3134e8a2e6d97e929a7e54011ea5485d7d196dd5f0ba4d4ef95803e8e3fc257f5f80a4611b29565b91612877565b805490816120db5750505f90565b815f198101116109ac575f525f199060205f2001015460301c90565b908160209103126102db57516103b7816102c9565b6001600160a01b0391821681529116602082015260408101919091526080606082018190526103b792910190610382565b9092833b61214c575b50505050565b604051630a85bd0160e11b81529260209284928392612170925f906004860161210c565b03815f6001600160a01b0387165af15f91816121fd575b506121c15750612195611aaa565b80519190826121ba57633250574960e11b5f526001600160a01b03821660045260245ffd5b6020915001fd5b6001600160e01b03191663757a42ff60e11b016121e257505f808080612146565b633250574960e11b5f526001600160a01b031660045260245ffd5b61222091925060203d602011612227575b6122188183610c4a565b8101906120f7565b905f612187565b503d61220e565b939193843b61223f575b5050505050565b6122606020936040519586948594630a85bd0160e11b86526004860161210c565b03815f6001600160a01b0387165af15f91816122a7575b506122855750612195611aaa565b6001600160e01b03191663757a42ff60e11b016121e257505f80808080612238565b6122c191925060203d602011612227576122188183610c4a565b905f612277565b916103b793916122d793612b2e565b90929192612bce565b6001600160a01b03165f818152600e602052604090208054600181019091559182900361230b575050565b6301d4b62360e61b5f5260045260245260445ffd5b805191908290602001825e015f815290565b610c809061235461234e94936040519586936020850190612320565b90612320565b03601f198101845283610c4a565b61236b81611e6c565b50805f52600a60205261238a61239160405f206040519283809261188b565b0382610c4a565b6040516123a18161238a816117ec565b80511561255a5781516125505750506123b981611e6c565b50604051906123d2826123cb816117ec565b0383610c4a565b81511561253a5780815f9272184f03e93ff9f4daa797ed6e38ed64bf6a1f0160401b811015612514575b50806d04ee2d6d415b85acef8100000000600a9210156124f8575b662386f26fc100008110156124e3575b6305f5e1008110156124d1575b6127108110156124c1575b60648110156124b2575b10156124a7575b61248c602161246160018501612dfd565b938401015b5f1901916f181899199a1a9b1b9c1cb0b131b232b360811b600a82061a8353600a900490565b90811561249c5761248c90612466565b50506103b791612332565b600190910190612450565b60029060649004930192612449565b600490612710900493019261243f565b6008906305f5e1009004930192612434565b601090662386f26fc100009004930192612427565b6020906d04ee2d6d415b85acef81000000009004930192612417565b6040935072184f03e93ff9f4daa797ed6e38ed64bf6a1f0160401b90049050600a6123fc565b505060405161254a602082610c4a565b5f815290565b6103b79250612332565b50905090565b612572905f52600460205260405f2090565b80546001600160a01b0319169055565b6126309061258e611ea0565b5f818152600260205260409020546001600160a01b03908116939082908216612675575b50506001600160a01b038316801580159183905f9084612649575b6125df835f52600260205260405f2090565b80546001600160a01b0319166001600160a01b0384161790557fddf252ad1be2c89b69c2b068fc378daa952ba7f163c4a11628f55a4df523b3ef8280a41561263a575061262b81612eb2565b612f4c565b6103b75f82612c4a565b15612f4c5761262b8184612e2f565b61265283612560565b6001600160a01b0388165f908152600360205260409020821981540190556125cd565b61267f918561315e565b5f816125b2565b65ffffffffffff811161269e5765ffffffffffff1690565b6306dfcc6560e41b5f52603060045260245260445ffd5b60018111156103b757806001600160801b8210156127d6575b61277c61277261276861275e61275461274a6127396127839760048a600160401b6127889c10156127c9575b6401000000008110156127bc575b620100008110156127af575b6101008110156127a2575b6010811015612795575b101561278d575b60030260011c90565b612743818b611d6a565b0160011c90565b612743818a611d6a565b6127438189611d6a565b6127438188611d6a565b6127438187611d6a565b6127438186611d6a565b8093611d6a565b821190565b900390565b60011b612730565b60041c9160021b91612729565b60081c9160041b9161271f565b60101c9160081b91612714565b60201c9160101b91612708565b60401c9160201b916126fa565b505061278861278361277c61277261276861275e61275461274a6127396127fd8a60801c90565b9850600160401b97506126ce9650505050505050565b91905b8382106128235750505090565b9091928083169080841860011c82018092116109ac57845f5265ffffffffffff8260205f2001541665ffffffffffff8416105f146128655750925b9190612816565b93925061287190611b75565b9161285e565b6001600160a01b0380831693929190811690818514158061298f575b61289e575050505050565b81612922575b5050826128b3575b8080612238565b6001600160a01b03165f9081526010602052604090207fdec2bacdd2f05b59de34da9b523dff8be42e5e38e818c82fdb0bae774387a724916128ff916128f99091612d06565b90612d6f565b604080516001600160d01b039384168152919092166020820152a25f80806128ac565b6001600160a01b03165f9081526010602052604090207fdec2bacdd2f05b59de34da9b523dff8be42e5e38e818c82fdb0bae774387a7249061296d9061296786612d06565b90612d37565b604080516001600160d01b039384168152919092166020820152a25f806128a4565b50831515612893565b60ff81146129cf5760ff811690601f82116129c0576129b5612dd8565b918252602082015290565b632cd44ac360e21b5f5260045ffd5b506040516103b78161238a81600c61188b565b60ff81146129ff5760ff811690601f82116129c0576129b5612dd8565b506040516103b78161238a81600d61188b565b307f00000000000000000000000000000000000000000000000000000000000000006001600160a01b03161480612b05575b15612a6d577f000000000000000000000000000000000000000000000000000000000000000090565b60405160208101907f8b73c3c69bb8fe3d512ecc4cf759cc79239f7b179b0ffacaa9a75d522b39400f82527f000000000000000000000000000000000000000000000000000000000000000060408201527f000000000000000000000000000000000000000000000000000000000000000060608201524660808201523060a082015260a08152612aff60c082610c4a565b51902090565b507f00000000000000000000000000000000000000000000000000000000000000004614612a44565b91907f7fffffffffffffffffffffffffffffff5d576e7357a4501ddfe92f46681b20a08411612ba5579160209360809260ff5f9560405194855216868401526040830152606082015282805260015afa15611e67575f516001600160a01b03811615612b9b57905f905f90565b505f906001905f90565b5050505f9160039190565b60041115612bba57565b634e487b7160e01b5f52602160045260245ffd5b612bd781612bb0565b80612be0575050565b612be981612bb0565b60018103612c005763f645eedf60e01b5f5260045ffd5b612c0981612bb0565b60028103612c24575063fce698f760e01b5f5260045260245ffd5b80612c30600392612bb0565b14612c385750565b6335e2f38360e21b5f5260045260245ffd5b6001600160a01b0316908115612cb2575b610c80916001916001600160a01b0316908115612c9a575b5f908152600f60205260408082205492825290205460a083901b8390039081169116612877565b612cab612ca684612d06565b612da3565b5050612c73565b612cbc6001612d06565b91612cc643612686565b92612cd160116120cd565b6001600160d01b0391821690821601929083116109ac57610c8093600193612cfa916011613088565b90505091509150612c5b565b6001600160d01b038111612d20576001600160d01b031690565b6306dfcc6560e41b5f5260d060045260245260445ffd5b90612d4143612686565b90612d4b836120cd565b6001600160d01b0391821690821603919082116109ac57612d6b92613088565b9091565b90612d7943612686565b90612d83836120cd565b6001600160d01b0391821690821601919082116109ac57612d6b92613088565b612dac43612686565b90612db760116120cd565b6001600160d01b03918216908216039081116109ac57612d6b916011613088565b60408051909190612de98382610c4a565b60208152918290601f190190369060200137565b90612e0782610c82565b612e146040519182610c4a565b8281528092612e25601f1991610c82565b0190602036910137565b5f91612e8491612e3e81611b29565b91808552600760205260408520549160018060a01b0316855260066020526040852091838103612e87575b5084526007602052836040812055905f5260205260405f2090565b55565b838652826020526040862054818752836020528060408820558652600760205260408620555f612e69565b600854815f5260096020528060405f2055600160401b811015610c6c5760018101600855600854811015611ba45760085f527ff3f7a9fe364faab93b216da50a3214154f22a0a2b415b23a84c8169e8b636ee30155565b90612f1382611b29565b5f198101929083116109ac5760018060a01b03165f52600660205260405f20825f526020528060405f20555f52600760205260405f2055565b6008545f198101918183116109ac57805f5260096020528160405f2054931015611ba45760085f527ff3f7a9fe364faab93b216da50a3214154f22a0a2b415b23a84c8169e8b636ee282015491831015611ba4577ff3f7a9fe364faab93b216da50a3214154f22a0a2b415b23a84c8169e8b636ee383018290555f91825260096020526040808320939093558152908120556008548015613027575f19810190600854821015611ba45760085f8181527ff3f7a9fe364faab93b216da50a3214154f22a0a2b415b23a84c8169e8b636ee29092019190915555565b634e487b7160e01b5f52603160045260245ffd5b805490600160401b821015610c6c5760018201808255821015611ba4575f9081526020902001815160209092015160301b65ffffffffffff191665ffffffffffff92909216919091179055565b805492939280156131345761309f6130aa91611d14565b825f5260205f200190565b8054603081901c9365ffffffffffff91821692918116808411613125578793036130f157506130ed92509065ffffffffffff82549181199060301b169116179055565b9190565b9150506130ed91613111613103610c71565b65ffffffffffff9093168352565b6001600160d01b038616602083015261303b565b632520601d60e01b5f5260045ffd5b509061315991613145613103610c71565b6001600160d01b038516602083015261303b565b5f9190565b90919061317c6001600160a01b03841680151590816131c457501590565b61318557505050565b6001600160a01b03166131a457637e27328960e01b5f5260045260245ffd5b63177e802f60e01b5f526001600160a01b0390911660045260245260445ffd5b6001600160a01b03841680821492508215613204575b5081156131e657501590565b5f858152600460205260409020546001600160a01b03161415919050565b9091505f52600560205260ff61322d8660405f209060018060a01b03165f5260205260405f2090565b5416905f6131da56fea2646970667358221220cb29b7342983c1299ac23725216dc8c63b4fc5d216bcca14ecea5d491d3a48a764736f6c634300081c0033","linkReferences":{}},"methodIdentifiers":{"CLOCK_MODE()":"4bf5d7e9","MAX_PRICE_STALENESS()":"d6913b32","airdrop(address[])":"729ad39e","approve(address,uint256)":"095ea7b3","balanceOf(address)":"70a08231","burn(uint256)":"42966c68","clock()":"91ddadf4","delegate(address)":"5c19a95c","delegateBySig(address,uint256,uint256,uint8,bytes32,bytes32)":"c3cda520","delegates(address)":"587cde1e","eip712Domain()":"84b0196e","getApproved(uint256)":"081812fc","getMintPrice()":"a7f93ebd","getPastTotalSupply(uint256)":"8e539e8c","getPastVotes(address,uint256)":"3a46b1a8","getVotes(address)":"9ab24eb0","isApprovedForAll(address,address)":"e985e9c5","maxSupply()":"d5abeb01","mint()":"1249c58b","mintPriceUSD()":"9b41886c","name()":"06fdde03","nonces(address)":"7ecebe00","owner()":"8da5cb5b","ownerOf(uint256)":"6352211e","pause()":"8456cb59","paused()":"5c975abb","priceFeed()":"741bef1a","renounceOwnership()":"715018a6","safeTransferFrom(address,address,uint256)":"42842e0e","safeTransferFrom(address,address,uint256,bytes)":"b88d4fde","setApprovalForAll(address,bool)":"a22cb465","setBaseURI(string)":"55f804b3","setMintPriceUSD(uint256)":"1cbb4131","supportsInterface(bytes4)":"01ffc9a7","symbol()":"95d89b41","tokenByIndex(uint256)":"4f6ccce7","tokenOfOwnerByIndex(address,uint256)":"2f745c59","tokenURI(uint256)":"c87b56dd","totalSupply()":"18160ddd","transferFrom(address,address,uint256)":"23b872dd","transferOwnership(address)":"f2fde38b","unpause()":"3f4ba83a","withdraw(address)":"51cff8d9"},"id":81}